{
  "_format": "hh-sol-artifact-1",
  "contractName": "StakingRewards",
  "sourceName": "contracts/StakingRewards.sol",
  "abi": [
    {
      "inputs": [
        {
          "internalType": "address",
          "name": "_stakingToken",
          "type": "address"
        },
        {
          "internalType": "address",
          "name": "_rewardsToken",
          "type": "address"
        }
      ],
      "stateMutability": "nonpayable",
      "type": "constructor"
    },
    {
      "inputs": [
        {
          "internalType": "address",
          "name": "account",
          "type": "address"
        }
      ],
      "name": "earned",
      "outputs": [
        {
          "internalType": "uint256",
          "name": "",
          "type": "uint256"
        }
      ],
      "stateMutability": "view",
      "type": "function"
    },
    {
      "inputs": [],
      "name": "getReward",
      "outputs": [],
      "stateMutability": "nonpayable",
      "type": "function"
    },
    {
      "inputs": [],
      "name": "lastUpdateTime",
      "outputs": [
        {
          "internalType": "uint256",
          "name": "",
          "type": "uint256"
        }
      ],
      "stateMutability": "view",
      "type": "function"
    },
    {
      "inputs": [],
      "name": "rewardPerToken",
      "outputs": [
        {
          "internalType": "uint256",
          "name": "",
          "type": "uint256"
        }
      ],
      "stateMutability": "view",
      "type": "function"
    },
    {
      "inputs": [],
      "name": "rewardPerTokenStored",
      "outputs": [
        {
          "internalType": "uint256",
          "name": "",
          "type": "uint256"
        }
      ],
      "stateMutability": "view",
      "type": "function"
    },
    {
      "inputs": [],
      "name": "rewardRate",
      "outputs": [
        {
          "internalType": "uint256",
          "name": "",
          "type": "uint256"
        }
      ],
      "stateMutability": "view",
      "type": "function"
    },
    {
      "inputs": [
        {
          "internalType": "address",
          "name": "",
          "type": "address"
        }
      ],
      "name": "rewards",
      "outputs": [
        {
          "internalType": "uint256",
          "name": "",
          "type": "uint256"
        }
      ],
      "stateMutability": "view",
      "type": "function"
    },
    {
      "inputs": [],
      "name": "rewardsToken",
      "outputs": [
        {
          "internalType": "contract IERC20",
          "name": "",
          "type": "address"
        }
      ],
      "stateMutability": "view",
      "type": "function"
    },
    {
      "inputs": [
        {
          "internalType": "uint256",
          "name": "_amount",
          "type": "uint256"
        }
      ],
      "name": "stake",
      "outputs": [],
      "stateMutability": "nonpayable",
      "type": "function"
    },
    {
      "inputs": [],
      "name": "stakingToken",
      "outputs": [
        {
          "internalType": "contract IERC20",
          "name": "",
          "type": "address"
        }
      ],
      "stateMutability": "view",
      "type": "function"
    },
    {
      "inputs": [
        {
          "internalType": "address",
          "name": "",
          "type": "address"
        }
      ],
      "name": "userRewardPerTokenPaid",
      "outputs": [
        {
          "internalType": "uint256",
          "name": "",
          "type": "uint256"
        }
      ],
      "stateMutability": "view",
      "type": "function"
    },
    {
      "inputs": [
        {
          "internalType": "uint256",
          "name": "_amount",
          "type": "uint256"
        }
      ],
      "name": "withdraw",
      "outputs": [],
      "stateMutability": "nonpayable",
      "type": "function"
    }
  ],
  "bytecode": "0x6080604052620186a060025534801561001757600080fd5b50604051610eeb380380610eeb833981810160405281019061003991906100d6565b81600160006101000a81548173ffffffffffffffffffffffffffffffffffffffff021916908373ffffffffffffffffffffffffffffffffffffffff160217905550806000806101000a81548173ffffffffffffffffffffffffffffffffffffffff021916908373ffffffffffffffffffffffffffffffffffffffff160217905550505061015b565b6000815190506100d081610144565b92915050565b600080604083850312156100e957600080fd5b60006100f7858286016100c1565b9250506020610108858286016100c1565b9150509250929050565b600061011d82610124565b9050919050565b600073ffffffffffffffffffffffffffffffffffffffff82169050919050565b61014d81610112565b811461015857600080fd5b50565b610d818061016a6000396000f3fe608060405234801561001057600080fd5b50600436106100b35760003560e01c80638b876347116100715780638b8763471461017a578063a694fc3a146101aa578063c8f33c91146101c6578063cd3daf9d146101e4578063d1af0c7d14610202578063df136d6514610220576100b3565b80628cc262146100b85780630700037d146100e85780632e1a7d4d146101185780633d18b9121461013457806372f702f31461013e5780637b0a47ee1461015c575b600080fd5b6100d260048036038101906100cd91906109e9565b61023e565b6040516100df9190610b0c565b60405180910390f35b61010260048036038101906100fd91906109e9565b610340565b60405161010f9190610b0c565b60405180910390f35b610132600480360381019061012d9190610a3b565b610358565b005b61013c610523565b005b610146610706565b6040516101539190610af1565b60405180910390f35b61016461072c565b6040516101719190610b0c565b60405180910390f35b610194600480360381019061018f91906109e9565b610732565b6040516101a19190610b0c565b60405180910390f35b6101c460048036038101906101bf9190610a3b565b61074a565b005b6101ce610917565b6040516101db9190610b0c565b60405180910390f35b6101ec61091d565b6040516101f99190610b0c565b60405180910390f35b61020a610980565b6040516102179190610af1565b60405180910390f35b6102286109a4565b6040516102359190610b0c565b60405180910390f35b6000600660008373ffffffffffffffffffffffffffffffffffffffff1673ffffffffffffffffffffffffffffffffffffffff16815260200190815260200160002054670de0b6b3a7640000600560008573ffffffffffffffffffffffffffffffffffffffff1673ffffffffffffffffffffffffffffffffffffffff168152602001908152602001600020546102d161091d565b6102db9190610c08565b600860008673ffffffffffffffffffffffffffffffffffffffff1673ffffffffffffffffffffffffffffffffffffffff168152602001908152602001600020546103259190610bae565b61032f9190610b7d565b6103399190610b27565b9050919050565b60066020528060005260406000206000915090505481565b3361036161091d565b600481905550426003819055506103778161023e565b600660008373ffffffffffffffffffffffffffffffffffffffff1673ffffffffffffffffffffffffffffffffffffffff16815260200190815260200160002081905550600454600560008373ffffffffffffffffffffffffffffffffffffffff1673ffffffffffffffffffffffffffffffffffffffff1681526020019081526020016000208190555081600760008282546104129190610c08565b9250508190555081600860003373ffffffffffffffffffffffffffffffffffffffff1673ffffffffffffffffffffffffffffffffffffffff16815260200190815260200160002060008282546104689190610c08565b92505081905550600160009054906101000a900473ffffffffffffffffffffffffffffffffffffffff1673ffffffffffffffffffffffffffffffffffffffff1663a9059cbb33846040518363ffffffff1660e01b81526004016104cc929190610ac8565b602060405180830381600087803b1580156104e657600080fd5b505af11580156104fa573d6000803e3d6000fd5b505050506040513d601f19601f8201168201806040525081019061051e9190610a12565b505050565b3361052c61091d565b600481905550426003819055506105428161023e565b600660008373ffffffffffffffffffffffffffffffffffffffff1673ffffffffffffffffffffffffffffffffffffffff16815260200190815260200160002081905550600454600560008373ffffffffffffffffffffffffffffffffffffffff1673ffffffffffffffffffffffffffffffffffffffff168152602001908152602001600020819055506000600660003373ffffffffffffffffffffffffffffffffffffffff1673ffffffffffffffffffffffffffffffffffffffff1681526020019081526020016000205490506000600660003373ffffffffffffffffffffffffffffffffffffffff1673ffffffffffffffffffffffffffffffffffffffff1681526020019081526020016000208190555060008054906101000a900473ffffffffffffffffffffffffffffffffffffffff1673ffffffffffffffffffffffffffffffffffffffff1663a9059cbb33836040518363ffffffff1660e01b81526004016106af929190610ac8565b602060405180830381600087803b1580156106c957600080fd5b505af11580156106dd573d6000803e3d6000fd5b505050506040513d601f19601f820116820180604052508101906107019190610a12565b505050565b600160009054906101000a900473ffffffffffffffffffffffffffffffffffffffff1681565b60025481565b60056020528060005260406000206000915090505481565b3361075361091d565b600481905550426003819055506107698161023e565b600660008373ffffffffffffffffffffffffffffffffffffffff1673ffffffffffffffffffffffffffffffffffffffff16815260200190815260200160002081905550600454600560008373ffffffffffffffffffffffffffffffffffffffff1673ffffffffffffffffffffffffffffffffffffffff1681526020019081526020016000208190555081600760008282546108049190610b27565b9250508190555081600860003373ffffffffffffffffffffffffffffffffffffffff1673ffffffffffffffffffffffffffffffffffffffff168152602001908152602001600020600082825461085a9190610b27565b92505081905550600160009054906101000a900473ffffffffffffffffffffffffffffffffffffffff1673ffffffffffffffffffffffffffffffffffffffff166323b872dd3330856040518463ffffffff1660e01b81526004016108c093929190610a91565b602060405180830381600087803b1580156108da57600080fd5b505af11580156108ee573d6000803e3d6000fd5b505050506040513d601f19601f820116820180604052508101906109129190610a12565b505050565b60035481565b6000806007541415610932576000905061097d565b600754670de0b6b3a76400006002546003544261094f9190610c08565b6109599190610bae565b6109639190610bae565b61096d9190610b7d565b60045461097a9190610b27565b90505b90565b60008054906101000a900473ffffffffffffffffffffffffffffffffffffffff1681565b60045481565b6000813590506109b981610d06565b92915050565b6000815190506109ce81610d1d565b92915050565b6000813590506109e381610d34565b92915050565b6000602082840312156109fb57600080fd5b6000610a09848285016109aa565b91505092915050565b600060208284031215610a2457600080fd5b6000610a32848285016109bf565b91505092915050565b600060208284031215610a4d57600080fd5b6000610a5b848285016109d4565b91505092915050565b610a6d81610c3c565b82525050565b610a7c81610c84565b82525050565b610a8b81610c7a565b82525050565b6000606082019050610aa66000830186610a64565b610ab36020830185610a64565b610ac06040830184610a82565b949350505050565b6000604082019050610add6000830185610a64565b610aea6020830184610a82565b9392505050565b6000602082019050610b066000830184610a73565b92915050565b6000602082019050610b216000830184610a82565b92915050565b6000610b3282610c7a565b9150610b3d83610c7a565b9250827fffffffffffffffffffffffffffffffffffffffffffffffffffffffffffffffff03821115610b7257610b71610ca8565b5b828201905092915050565b6000610b8882610c7a565b9150610b9383610c7a565b925082610ba357610ba2610cd7565b5b828204905092915050565b6000610bb982610c7a565b9150610bc483610c7a565b9250817fffffffffffffffffffffffffffffffffffffffffffffffffffffffffffffffff0483118215151615610bfd57610bfc610ca8565b5b828202905092915050565b6000610c1382610c7a565b9150610c1e83610c7a565b925082821015610c3157610c30610ca8565b5b828203905092915050565b6000610c4782610c5a565b9050919050565b60008115159050919050565b600073ffffffffffffffffffffffffffffffffffffffff82169050919050565b6000819050919050565b6000610c8f82610c96565b9050919050565b6000610ca182610c5a565b9050919050565b7f4e487b7100000000000000000000000000000000000000000000000000000000600052601160045260246000fd5b7f4e487b7100000000000000000000000000000000000000000000000000000000600052601260045260246000fd5b610d0f81610c3c565b8114610d1a57600080fd5b50565b610d2681610c4e565b8114610d3157600080fd5b50565b610d3d81610c7a565b8114610d4857600080fd5b5056fea2646970667358221220a74e494a5886abc9ef2649fca437adc7c3cd392ef06341f96dbbae6579ad195c64736f6c63430008000033",
  "linkReferences": {},
  "deployedLinkReferences": {}
}